:020000040800F2
:100000006808002005020008FF020008C502000879
:10001000FB020008BF0200081104000800000000F5
:100020000000000000000000000000002B0300089A
:10003000C302000800000000290300082D03000887
:100040001F0200081F0200081F0200081F0200080C
:100050001F0200081F0200081F0200081F020008FC
:100060001F0200081F0200081F0200081F020008EC
:100070001F0200081F0200081F0200081F020008DC
:100080001F0200081F020008000000001F020008F5
:100090001F0200081F0200081F0200081F020008BC
:1000A0001F0200081F0200081F0200081F020008AC
:1000B0001F020008000000001F02000800000000EE
:1000C0001F020008000000001F0200081F020008B5
:1000D0001F0200081F0200081F02000800000000A5
:1000E00000000000000000001F0200081F020008BE
:1000F0001F0200081F0200081F0200081F0200085C
:100100001F02000800000000000000001F0200089D
:1001100000000000000000000000000000000000DF
:1001200000000000000000000000000000000000CF
:1001300000000000000000000000000000000000BF
:1001400000000000000000000000000000000000AF
:1001500000000000000000001F0200081F0200084D
:100160001F0200081F02000800F002F800F03AF831
:100170000AA090E8000C82448344AAF10107DA4502
:1001800001D100F02FF8AFF2090EBAE80F0013F01A
:10019000010F18BFFB1A43F0010318477404000055
:1001A00094040000103A24BF78C878C1FAD85207E6
:1001B00024BF30C830C144BF04680C6070470000E1
:1001C0000023002400250026103A28BF78C1FBD860
:1001D000520728BF30C148BF0B6070471FB51FBD15
:1001E00010B510BD00F031F81146FFF7F7FF00F031
:1001F00069F900F04FF803B4FFF7F2FF03BC00F019
:1002000057F800000948804709480047FEE7FEE725
:10021000FEE7FEE7FEE7FEE7FEE7FEE7FEE7FEE7B6
:1002200004480549054A064B70470000350300089D
:1002300069010008680000206808002068040020A8
:1002400068040020704770477047754600F02CF82E
:10025000AE4605006946534620F00700854618B0B3
:1002600020B5FFF7DDFFBDE820404FF000064FF05E
:1002700000074FF000084FF0000B21F00701AC46DB
:10028000ACE8C009ACE8C009ACE8C009ACE8C009FA
:100290008D46704710B50446AFF300802046BDE898
:1002A0001040FFF7A8BF000000487047080000207A
:1002B00001491820ABBEFEE726000200704700BFD0
:1002C000FEE7704700BFFEE710B540F2115000F0A6
:1002D00011F91C23002201214FF0904000F0AAF8F0
:1002E0001C23002211464FF0904000F0CAF81C2158
:1002F0004FF0904000F09AF810BD00BFFEE7704745
:1003000010B5002807DA0A07140E054A00F00F039B
:100310001B1FD45403E00A07130E024A135410BDE6
:1003200018ED00E000E400E07047704710B500F001
:1003300071F810BD08B53248006840F0010030493E
:10034000086000BF2E48006800F002000028F9D0C5
:1003500000BF2B48406840F08000294948600020D9
:10036000009002E00098401C009000985028F9D3BB
:100370002348406840F090002149486000200090E8
:1003800002E00098401C009000985028F9D300BF6C
:100390001B48406820F0030019494860084600687F
:1003A0001849084016490860084640681649084040
:1003B000134948600846406814490840104948609D
:1003C0000846406820F4400048600846C06A20F0B3
:1003D0000F00C8620846006B40F243118843084989
:1003E00008630846406B20F00100486300208860E5
:1003F00000F0E2F800214FF0006000F06FF808BD57
:1004000000100240FFFFF2FE0C00FF08FFFFC0F7E4
:1004100000BFFEE70448006820B103480068401EA2
:1004200001490860704700000000002081627047A9
:1004300081617047F0B504460D4616462168E268B2
:10044000002019E0012787401F409FB14FEA400C70
:10045000032707FA0CF7B943470005FA07F73943B2
:100460004FEA400C032707FA0CF7BA43470006FA95
:1004700007F73A43471CB8B21028E3D32160E26083
:10048000F0BDF0B50C461546012C03D146681E435D
:10049000466002E046689E434660826800210DE0A7
:1004A00001268E401E403EB14F000326BE40B2439F
:1004B0004E0005FA06F632434E1CB1B21029EFD3B6
:1004C0008260F0BDFFF700FF00F07AF804E01C2125
:1004D0004FF09040FFF7ACFFF9E70000034A0A40F5
:1004E0000243034B1A60BFF34F8F704780FFFF1F1B
:1004F00008ED00E0064A02EB9011096800F01F03C6
:1005000001229A401143024B03EB90121160704795
:100510000010024000200021254A126842F4803277
:10052000234B1A6000BF401C214A126802F40031BC
:1005300011B9B0F5006FF6D11D4A126802F400320D
:1005400002B970471A4A5268194B5A601A465268E3
:100550005A601A4652685A601A465268154B1A4039
:10056000134B5A601A46526842F4E8125A601A460F
:10057000126842F080721A6000BF0D4A126802F0E1
:100580000072002AF9D00A4A526822F00302084B8E
:100590005A601A46526842F002025A6000BF044A8A
:1005A000526802F00802002AF9D000BFC9E7000033
:1005B00000100240FFFFC27710B5FFF7ABFF10BD80
:1005C00010B5124800684FF47A71B0FBF1F4601E68
:1005D000B0F1807F01D301200FE0601E4FF0E021D9
:1005E00048610F214FF0FF30FFF78AFE00204FF0E7
:1005F000E021886107200861002008B100BFFEE704
:100600000021481EFFF77CFE10BD00000400002002
:10061000300600080000002008000000A4010008C7
:10062000380600080800002060080000C00100082B
:080630000000000000A24A04D2
:040000050800016985
:00000001FF
