:020000040800F2
:10000000F008002005020008130400080D03000892
:1000100011040008BF020008810900080000000068
:10002000000000000000000000000000A105000822
:10003000010300080000000049040008D50500087D
:100040001F0200081F0200081F0200081F0200080C
:100050001F0200081F0200081F0200081F020008FC
:100060001F0200081F0200081F0200081F020008EC
:100070001F0200081F0200081F0200081F020008DC
:100080001F0200081F020008000000001F020008F5
:100090001F0200081F0200081F0200081F020008BC
:1000A0001F0200081F0200081F020008ED080008D8
:1000B0001F020008000000001F02000800000000EE
:1000C0001F020008000000001F0200081F020008B5
:1000D0001F0200081F0200081F02000800000000A5
:1000E00000000000000000001F0200081F020008BE
:1000F0001F0200081F0200081F0200081F0200085C
:100100001F02000800000000000000001F0200089D
:1001100000000000000000000000000000000000DF
:1001200000000000000000000000000000000000CF
:1001300000000000000000000000000000000000BF
:1001400000000000000000000000000000000000AF
:1001500000000000000000001F0200081F0200084D
:100160001F0200081F02000800F002F800F03AF831
:100170000AA090E8000C82448344AAF10107DA4502
:1001800001D100F02FF8AFF2090EBAE80F0013F01A
:10019000010F18BFFB1A43F001031847582600004F
:1001A00078260000103A24BF78C878C1FAD85207E0
:1001B00024BF30C830C144BF04680C6070470000E1
:1001C0000023002400250026103A28BF78C1FBD860
:1001D000520728BF30C148BF0B6070471FB51FBD15
:1001E00010B510BD00F031F81146FFF7F7FF00F031
:1001F000BBFD00F04FF803B4FFF7F2FF03BC00F0C3
:1002000057F800000948804709480047FEE7FEE725
:10021000FEE7FEE7FEE7FEE7FEE7FEE7FEE7FEE7B6
:1002200004480549054A064B70470000D9050008F7
:1002300069010008F0000020F0080020F004002010
:10024000F0040020704770477047754600F02CF8A6
:10025000AE4605006946534620F00700854618B0B3
:1002600020B5FFF7DDFFBDE820404FF000064FF05E
:1002700000074FF000084FF0000B21F00701AC46DB
:10028000ACE8C009ACE8C009ACE8C009ACE8C009FA
:100290008D46704710B50446AFF300802046BDE898
:1002A0001040FFF7A8BF00000048704790000020F2
:1002B00001491820ABBEFEE7260002007047FEE7AA
:1002C00070B505461446084602F0B6F806462846BC
:1002D00002F0B2F805463046294602F0D9F801D2BC
:1002E000354608E0204602F0A7F80446294602F009
:1002F000CFF900D225462846BDE8704002F060B82C
:10030000704700E0401E0028FCD17047FEE710B5A2
:1003100040F2115000F03EFF1C23002201214FF05B
:10032000904000F0D6FC00221C2311464FF0904074
:1003300000F0F6FCBDE810401C214FF0904000F0AA
:10034000C4BC00002DE9F04106460F4615461C4688
:100350003946304602F09CF901D23E4605E0294676
:10036000304602F095F800D22E46274F3878012803
:1003700009D03046796802F0C7F9214602F088F9C1
:1003800034D27E683BE03046796802F0BDF9214600
:1003900002F07EF905D22146786801F0E1FE0646BA
:1003A0000CE03146786802F0AFF9214602F070F9AE
:1003B00004D22146786802F0A7F906461349204680
:1003C00001F03CFF01F0A0FE04460D46304679687E
:1003D00002F09AF901F098FE21F0004122462B46E6
:1003E00001F018FD0BD20020387008E03146786823
:1003F00002F08AF9214602F04BF900D27E687E6055
:100400003046BDE8F08100002400002000002041BB
:10041000FEE7704710B540F2115000F0BBFE01231B
:10042000002219464FF0904000F053FC00220123B7
:1004300011464FF0904000F073FCBDE810400121E0
:100440004FF0904000F043BC704700002DE9F041B0
:1004500006460D464FF400414FF0904000F035FC49
:100460003A4F0821384600F030FCFF20FFF749FFE3
:1004700079014FF0904000F028FC0024FF20FFF7A6
:1004800040FF16F0010F04D01021384600F01FFC89
:1004900003E01021384600F018FC4FF400414FF003
:1004A000904000F014FC7608FF20FFF72AFF4FF47D
:1004B00000414FF0904000F008FC641C042CDDD398
:1004C0001021384600F003FCFF20FFF71AFF4FF41D
:1004D00000414FF0904000F0FAFBFF20FFF711FFC2
:1004E0004FF400414FF0904000F0EFFB0024FF205C
:1004F000FFF707FF15F0010F04D01021384600F078
:10050000E6FB03E01021384600F0DFFB4FF400412A
:100510004FF0904000F0DBFB6D08FF20FFF7F1FE8D
:100520004FF400414FF0904000F0CFFB641C142CBE
:10053000DDD3FF20FFF7E5FE0821384600F0C7FBBA
:10054000BDE8F0414FF6FF70FFF7DBBE0004004846
:1005500010B540F2115000F01DFE40F2125000F0B4
:1005600019FE0E4C182300220121204600F0B1FB99
:10057000182303220021204600F0D2FB6301002251
:1005800001214FF0904000F0A4FB63010322BDE87D
:10059000104000214FF0904000F0C2BB0004004822
:1005A0007047000010B501F022FC084A084B01F02A
:1005B00099FA01F0EFFB81094A4200EB8210C90170
:1005C0000144BDE810400120FFF740BF7B14AE4757
:1005D000E17AA43F00F028BB08B52948016841F042
:1005E00001010160016811F0020FFBD0416841F088
:1005F000800141600022009202E00099491C0091B4
:1006000000995029F9D3416841F09001416000926E
:1006100002E00099491C009100995029F9D34168E2
:1006200021F003014160016821F4502121F0807123
:1006300001604168134B19404160416821F47C110D
:1006400021F000614160416821F440014160C16ACC
:1006500021F00F01C162016B21F0430121F480718F
:100660000163416B21F001014163826000F0E8FD0C
:10067000BDE8084000214FF0006000F03DBC0000E4
:10068000001002400C00FF0810B588B040F2115075
:1006900000F080FD4FF4E06000F07CFD08230022B4
:1006A00002214FF0904000F014FB082303220021A8
:1006B0004FF0904000F034FB082202214FF09040B0
:1006C00000F0D1FA4FF0804000F04CFF4720ADF829
:1006D00000000024ADF80240ADF8044040F2E730DD
:1006E0000290ADF806408DF80C4069464FF080400E
:1006F00000F0AEFF01200490ADF81440ADF81640B4
:10070000ADF81840ADF81A40ADF81C4004AA03211A
:10071000800700F0BFFD64220321100700F0E8FE0F
:10072000602203214FF0804000F0B8FE0022032138
:100730004FF0804000F0ECFE4FF0804000F0A4FD50
:100740004FF0804000F07EFF08B010BD30B589B09A
:1007500040F2125000F01EFD40F2017000F01AFD50
:100760002A4C202300220221204600F0B2FA202346
:1007700003220021204600F0D3FA20220121204646
:1007800000F071FA224D284600F0ECFE0024ADF88E
:100790000040ADF80240ADF8044041F26F700290A5
:1007A000ADF806408DF80C406946284600F050FF31
:1007B00001200490ADF814400220ADF81600082086
:1007C000ADF818004001ADF81A004000ADF81C006B
:1007D00004AA0121284600F05DFD4FF46172012159
:1007E000284600F085FE60220121284600F056FED2
:1007F00000220121284600F08BFE284600F044FD2F
:10080000284600F01FFF09B030BD0000000400487A
:100810000004004010B540F2115000F0BBFC40F263
:100820000E6000F0B7FC4FF4007201214FF09040D1
:1008300000F019FA4FF40073012202214FF09040AA
:1008400000F047FA4FF40073032200214FF090406C
:1008500000F066FA244C204600F091FF4FF49651C8
:10086000204600F051FF0021204601F048F8002109
:10087000204601F013F86114204601F02CF8002105
:10088000204600F0B4FF0021204600F0A4FF2046DF
:1008900000F068FF204600F0EFFF204600F0F5FF73
:1008A000204601F00FF8204600F08CFF082120467A
:1008B00001F01DF80421204600F0FCFF204600F066
:1008C0007CFF4FF4A06000F00DFB022211461B20BC
:1008D00000F0BAFA0421204600F0A1FF2046BDE84E
:1008E0001040052100F09BBF0038014070B5164E46
:1008F000164D3146284600F0A6FF154C68B1284633
:1009000000F039FF2288511C218012498854314659
:100910002846BDE8704000F08DBF0F4E2846314696
:1009200000F091FF00280DD0284600F024FF31464A
:10093000284600F07FFF2088002803D0BDE87040E3
:1009400000F00CB870BD000005000507003801403C
:10095000200000202C0000200400040710B5074CE4
:100960000421204600F04FFF0521204600F04BFFF8
:100970002046BDE81040002100F09CBF0038014037
:10098000FEE710B540F2115000F004FC032000F027
:10099000EDFA0223002203214FF0904000F099F974
:1009A00040F2096000F0F6FB4FF46021012000F0F6
:1009B00091F8012000F026F9002000F04BF8012109
:1009C000084600F023F80121084600F05FF800F027
:1009D00051F84FF6FF70FFF794FCBDE8104000F0AF
:1009E00001B800000848016841F008010160016891
:1009F00011F0080FFBD1016841F0040101600168AA
:100A000011F0040FFBD1704708240140491E012852
:100A10000ED002280BD10D48026822F44012026069
:100A200002684FF4401303EA01511143016070471B
:100A30000748026822F47002026002684FF47003F3
:100A400003EA01511143016070470000382401405E
:100A50002C2401400649002804D0086840F40060B6
:100A600008607047086820F4006008607047000064
:100A7000082401400448016811F0010F03D1016806
:100A800041F001010160704708240140104A00292B
:100A90000ED010F0010F03D0116841F480111160E5
:100AA00010F0020F03D0106840F40040106070474F
:100AB00010F0010F03D0116821F48011116010F0C3
:100AC000020FF4D0106820F400401060704700005E
:100AD000082401400A4A012809D0022806D11068DA
:100AE00020F4E04010601068084310607047106800
:100AF00020F4602010601068084310607047000008
:100B00000824014002490A6822EA00000860704790
:100B10000024014001460020024A12680A4200D027
:100B2000012070470024014010B4122900D1002197
:100B30004FF01F0C06280CD22A4C236800EB8000D3
:100B40000CFA00FC23EA0C0301FA00F018432060C1
:100B50001EE00C280DD2244C2368801F00EB80007F
:100B60000CFA00FC23EA0C0301FA00F018432060A1
:100B70000EE010280CD21D4C23680C3800EB8000CE
:100B80000CFA00FC23EA0C0301FA00F01843206081
:100B900007240A2910D2DFF858C0DCF8003001EB36
:100BA000410004FA00F123EA010102FA00F00843CF
:100BB000CCF8000010BC70471229FBD2DFF834C01B
:100BC000DCF80030A1F10A0000EB400004FA00F16B
:100BD00023EA010102FA00F00843CCF8000010BC3F
:100BE0007047000034240140302401402C2401408F
:100BF000102401400C2401400148006880B2704775
:100C00004C240140074910F0010F03D00A6842F458
:100C100080020A6010F0020F03D0086840F4001050
:100C2000086070470824014003480168002902D089
:100C30000168491E016070470000002010B50146A0
:100C400007220020FFF770FF0120FFF7DBFF0220E3
:100C5000FFF760FF0028FAD00220FFF753FFBDE83E
:100C60001040FFF7C9BF2DE9F001D0F820C0446A59
:100C7000002301260F2706FA03F5154208D09D0030
:100C800007FA05F82CEA080C01FA05F545EA0C0C00
:100C90005B1C9BB2082BEED3082306FA03F5154222
:100CA00009D0A3F10805AD0007FA05F824EA080405
:100CB00001FA05F52C435B1C9BB2102BEDD3C0F859
:100CC00020C04462BDE8F0017047816270478161D5
:100CD00070472DE9F0070468C5684FF0000C4FF02D
:100CE00001094FF0030809FA0CF61E420CD04FEA36
:100CF0004C0608FA06F7BC4301FA06FA4AEA04046D
:100D0000BD4302FA06F635430CF1010C1FFA8CFCC8
:100D1000BCF1100FE7D30460C560BDE8F007704771
:100D2000F0B401291CD0416899434160D0F808C053
:100D300000210126032506FA01F41C4208D04C00CC
:100D400005FA04F72CEA070C02FA04F444EA0C0C46
:100D5000491C89B21029EED3C0F808C0F0BC704716
:100D6000416819434160E1E782B0FFF7D0FAFFF72D
:100D7000EFFBFFF74FFB00210F20FFF767FB4FF45E
:100D8000C8710020FFF762FB4FF4AF50FFF70AFC79
:100D9000FFF7F7FDFFF778FCFFF7D8FCFFF73AFD08
:100DA00000F050FA224C2148A060224FDFF88880E2
:100DB000DFF88890DFF888A0DFF888B04FF07C5625
:100DC0000120FFF73BFF01F04FFB3B4600224FF0B5
:100DD0008B41FFF7B7FA05462060A06841460190B5
:100DE00001F02CFA01F090F94FF066324B4600F01A
:100DF000C5FD00F091FD0246534600962846019934
:100E000000F086F801F0DCFA4FF4487240F2145119
:100E1000FFF756FA01F010FB606001F0EDFA0246B0
:100E20000121584600F064FBCAE7000000407B4403
:100E3000040000200000484300007A446666F63F44
:100E4000295C8F3D0004004070B505460E46002326
:100E50009C462348006800F4E064B4F5A06F36D0E7
:100E600006DCB4F5407F39D0B4F5806F06D131E0AF
:100E7000B4F5C06F27D0B4F5E06F21D04FF4A06077
:100E800000F030F802239C46C3F1040006FA00F09B
:100E9000CCF104010F2323FA01F1114008430001B2
:100EA00005F1E02181F8000405F01F00012101FA9D
:100EB00000F06909890001F1E021C1F8000170BD6D
:100EC0004FF0040CE0E701234FF0030CDCE70223B2
:100ED0009C46D9E703234FF0010CD5E70423D3E761
:100EE0000CED00E0034940F0FD7040F080600860C8
:100EF000704700000CED00E021F07F0121F060411F
:100F0000084302490860BFF34F8F704708ED00E0C7
:100F10002DE9F04716461F46DDF8208001F0E9FB79
:100F20000546114C2946206801F01AF981462060D7
:100F30002846616801F0E8FBA0600146404601F0E8
:100F4000DBFA80464946384601F0D6FA074629467C
:100F5000304601F0D1FA394601F002F9414601F07C
:100F6000FFF86560BDE8F087140000201B494A685F
:100F700022F440424A600A6B22F480720A63052818
:100F800008D2DFE800F003080F182100086B20F4F6
:100F900080700863704748684860086B40F4807050
:100FA00008637047486840F480404860086B40F42C
:100FB000807008637047486840F400404860086BE0
:100FC00040F4807008637047486840F440404860CF
:100FD000086B40F480700863704700000010024006
:100FE0002DE9F00388B0064600200023844660A166
:100FF0008D680C684A68C968069504940592079143
:101000005CA14A680968039202915AA14A6809687A
:10101000019200915A4F7968C1F38101594D00291D
:1010200023D0012923D0022923D029467A68C2F38C
:10103000031204ACA25C21FA02F47A68C2F3022221
:101040000DF1080818F8022024FA02F87A68C2F3B1
:10105000C2221DF8022024FA02F2072E23D2DFE872
:1010600006F021262B30355565002946DEE7294656
:10107000DCE77968C1F383417A68C2F3C0620AB1E0
:10108000113100E0891C7A68C2F300423AB1FA6A71
:1010900002F00F02521CB5FBF2F25143C6E73A4A86
:1010A0005143C3E7084608B0BDE8F0037047204647
:1010B00008B0BDE8F0037047404608B0BDE8F00353
:1010C0007047104608B0BDE8F0037047386B10F465
:1010D000807F0AD07868C0F3813040B1012808D001
:1010E000022808D003280CD10AE0284B09E0530855
:1010F00007E0930805E02648A0FB0210830800E003
:10110000D308184608B0BDE8F0037047386B10F0FC
:10111000400F05D008B04FF40040BDE8F003704721
:1011200008B048F21200BDE8F0037047386B10F0C9
:10113000030F0FD0386B00F0030001280CD0386B80
:1011400000F00300022809D0386B032131EA0000C7
:1011500007D007E0944605E08C4603E04FF4004CCE
:1011600000E0AC46604608B0BDE8F0037047000000
:101170000000000000000000010203040607080947
:101180000010024000127A0000093D00809FD50047
:10119000ABAAAAAA810901F1804101F504310A68CC
:1011A00000F01F00012303FA00F0104308607047AD
:1011B000810901F1804101F504310A6800F01F0046
:1011C000012303FA00F022EA000008607047810959
:1011D00001F1804101F504310A6800F01F0001238C
:1011E00003FA00F01043086070470000134841689C
:1011F00041604168416041684160416821F4741177
:1012000021F000614160416841F4802141F00061BA
:101210004160016841F080710160016811F0007F58
:10122000FBD0416821F003014160416841F00201B7
:101230004160416811F0080FFBD070470010024078
:10124000FFF7D4BF0E484FF47A710068B0FBF1F09D
:10125000401E0C4A0023B0F1807F01D3012009E039
:101260004FF0E0214861F02082F8140D8B610720D7
:101270000861002000B1FEE782F8143D70470000CD
:10128000100000200FE000E0016841F080010160E3
:101290007047000010B47F4BDFF8FCC100292AD052
:1012A00001296CD002297DD0032922D1016A21F4C1
:1012B00080510162C16921F44071C161016AD2F8B3
:1012C00000C041EA0C310162016A21F4005101625F
:1012D000016AB2F806C041EA0C310162984208D1B5
:1012E000416821F4804141604168528941EA82119C
:1012F000416010BC7047016A21F0010101628169FF
:1013000021F003018161016A146821430162016ACD
:1013100021F002010162016AD488214301629842EE
:101320000BD0604509D0A0F18041B1F5A23104D0C5
:10133000A0F18041B1F5A431DBD1016A21F00401B3
:101340000162016A938819430162016A21F0080170
:101350000162016A138919430162416821F48071B5
:1013600041604168538919434160416821F400712B
:101370004160416892891143416010BC7047016A25
:1013800021F010010162816921F440718161016ADB
:10139000146841EA04110162016A21F0200101622E
:1013A000016A00E036E0D48841EA04110162984203
:1013B00023D1016A21F040010162016A938841EA68
:1013C00003110162016A21F080010162016A13893F
:1013D00041EA03110162416821F480614160416882
:1013E000538941EA83014160416821F40061416011
:1013F0004168938941EA830141606045BDD14168FC
:1014000021F4806141604168528941EA8201416072
:1014100010BC7047016A21F480710162C16921F03A
:101420000301C161016AD2F800C041EA0C210162E6
:10143000016A21F400710162016AB2F806C041EA52
:101440000C2101629842E3D1016A21F480610162BA
:10145000016A938841EA03210162016A21F4006173
:101460000162016A138941EA03210162416821F4A2
:10147000805141604168538941EA031141604168EC
:1014800021F4005141604168928941EA02114160B2
:1014900010BC7047002C01400040014000290ED0D4
:1014A000012914D002291BD0032907D1C16921F4D5
:1014B000E041C161C16941EA0221C16170478169AE
:1014C00021F07001816181691143816170478169F7
:1014D00021F4E0418161816941EA02218161704723
:1014E000C16921F07001C161C1691143C1617047D7
:1014F000002907D0012907D0022907D0032900D1EC
:10150000026470474263704782637047C2637047EA
:1015100000290ED0012914D002291BD0032907D19C
:10152000C16921F40061C161C16941EA0221C1615F
:101530007047816921F008018161816911438161EE
:101540007047816921F400618161816941EA02216A
:1015500081617047C16921F00801C161C16911430E
:10156000C161704710B5364A811A90422BD017DC02
:10157000B0F1804F31D0A0F18040B0F5806036D01E
:10158000B0F5406F3DD0B0F5E05F58D14FF48160C9
:10159000FFF71DFEBDE810404FF48160FFF708BE65
:1015A000B1F5A05F37D0B1F5C05F3ED0B1F5E05FD7
:1015B00045D140F21230FFF70AFEBDE8104040F27C
:1015C0001230FFF7F5BD40F20B30FFF700FEBDE82B
:1015D000104040F20B30FFF7EBBD4FF48060FFF797
:1015E000F6FDBDE810404FF48060FFF7E1BD40F22A
:1015F0000140FFF7ECFDBDE8104040F20140FFF76D
:10160000D7BD40F20440FFF7E2FDBDE8104040F2D4
:101610000440FFF7CDBD4FF44470FFF7D8FDBDE89F
:1016200010404FF44470FFF7C3BD40F21130FFF794
:10163000CEFDBDE8104040F21130FFF7B9BD10BD3E
:10164000002C0140016841F0010101607047000079
:1016500070B40A888262274A274B904204D0B0F1C6
:10166000804F01D0984213D1D0F800C02CF0700CFC
:10167000C0F800C0D0F800C04C884CEA040CC0F898
:1016800000C0D0F800C08C884CEA040CC0F800C040
:10169000D1F808C0C0F82CC0DFF860C0184C194D54
:1016A00090420FD0B0F1804F0CD098420AD0A0F1F8
:1016B0008043B3F5005305D0604503D0A04201D06C
:1016C000A84207D1036823F4407303600368CE88FF
:1016D00033430360904205D0604503D0A04201D05F
:1016E000A84201D1097B0163416941F001014161D7
:1016F00070BC7047002C01400004004000400140D5
:10170000004401400048014070B504460D460020E9
:10171000A4F18041B1F5884106D0B1F5744F06D1EE
:101720000620FFF75DFC02E00220FFF759FC21686C
:1017300011F4004F4FF6F0710AD0400000EB550055
:10174000B0FBF5F00140C0F342000843E06070BD1B
:1017500000EB5500B0FBF5F0014000F00F0008432E
:10176000E06070BD016821F001010160416821F471
:10177000006141607047406AC0F30800704710B5CF
:10178000A0F18040B0F588400CD0B0F5744F13D173
:1017900040F20E30FFF71BFDBDE8104040F20E3066
:1017A000FFF706BD40F21140FFF711FDBDE8104004
:1017B00040F21140FFF7FCBC10BD016841F001018F
:1017C00001607047016821F001010160816841F00A
:1017D000080181607047026822F00102026082689D
:1017E00022F400728260826811438160704702684F
:1017F00022F001020260826822F4807282608268B4
:1018000011438160704700EB9110026801F01F01E5
:10181000012303FA01F122EA01010160704700EBA4
:101820009110026801F01F01012303FA01F1114335
:1018300001607047026AC1F30441012303FA01F118
:10184000114301627047C1F38912825801F01F0CE5
:10185000012303FA0CFC02EA0C0200EB9150006831
:10186000C1F3044103FA01F10840002802D00AB193
:101870000120704700207047016821F001010160DC
:10188000816821F0020181607047016821F0010147
:101890000160416821F4804141607047026822F094
:1018A00001020260026822F4C06202600268114311
:1018B00001607047026822F004020260026811436E
:1018C00001607047016821F001010160816821F029
:1018D000200181607047026822F0010202604268C4
:1018E00022F44052426042681143416070470268EE
:1018F00022F008020260026811430160704702682A
:1019000022F001020260026822F480520260026842
:10191000114301607047000021F00042A2F16052C3
:10192000B2F5801F01F0004328BFD2F17F6C0BD9C4
:101930005FEA001C43EAC20242EB507018BF7047D6
:1019400028BF20F001007047B2F5801FBCBF1846C9
:1019500070474FEA410C1CF5001F02D2084600F008
:1019600092BE70B500F092FA00000089FFF7F6BF52
:101970004FF00040A0F580007047000010B591EADC
:10198000030F48BF83F0004300F1DC82841A71EB3F
:10199000030C05D2121943EB0C03001B61EB0C0185
:1019A000DFF824E14FEA1154A4EB135C1EEA430F65
:1019B00018BF9EEA445F73D023EA0E03DCF1200EC9
:1019C00021EA045143F4801332D322FA0CFE10EBC7
:1019D0000E0023FA0CFE41EB0E01CCF1200E03FAAF
:1019E0000EFE10EB0E0051F10001B1F5801FCCF19D
:1019F000200E32D201EB045112FA0EF2BDE8104073
:101A000058BF7047401C38BF5FEA420218BF70479A
:101A1000002814BF20F0010041F100014FEA41030A
:101A200013F5001F38BF7047A1F1C04100F07CBA28
:101A3000012A43EB0302ACF1200CDCF11F0E32BF94
:101A40004FF0000E23FA0CF310EB030041EB0451AE
:101A5000B4EB115FD0D0A1EB045101F5801149081E
:101A60005FEA300001EB04510ED350F1000038BFA3
:101A700012FA0EFE08D1BDE81040C9E7401C38BF7D
:101A80005FEA4202CAD1C3E7BDE810404FEA410312
:101A900013F5001F38BF7047A1F1C04100F044BAF0
:101AA0009EEA445F08D011EA5E0FBDE8104004BF13
:101AB00001F0004100207047BDE8104070B500F013
:101AC000E5F900BF64FBBE3E0000E0FF491058BFCF
:101AD000C1F140415B1058BFC3F140438B42EFF36B
:101AE000008070472DE9C04130B4DFF8A0C23CEA65
:101AF000111418BF3CEA131400F0EC8081EA0305CE
:101B00001CEA111444EAD57418BF1CEA131500F03E
:101B1000C780A4EB05044FF0004545EAC12145EA22
:101B2000C32341EA505143EA525304F17F7499426E
:101B300004F500344FEAC0204FEAC22208BF9042A9
:101B400000F09C804FEA13650FF24016765D4FEA75
:101B5000134506FB05F7C7F1807706FB07F74FEA49
:101B6000D737A7FB03687642C8F58038A7FB06CEB7
:101B700038BFA8F1010807FB08E64FF0000EA6FBEE
:101B8000028CE6FB03CEDCF1000CCEF1004E38BF38
:101B9000AEF1010EA6FB0C584FF000074FF0000508
:101BA000E6FB0E87A1FB08C6A0FB07CE16EB0E06D0
:101BB00045F10005E1FB076515F1E04E7EBFA4F598
:101BC00080345FEA46066D4116F1800745F1000555
:101BD0004FEA17274FEA066647EA0567A6F1DE4691
:101BE000B6F1805F4FEA15251FD9384624F0010C65
:101BF00005EBC471BCF1FE6F01EB0C1102D8F0BC17
:101C0000BDE8008124425CBF01F5801E9EEAC47FCE
:101C100002D4F0BCBDE80081244238D4F0BCA1F16C
:101C2000C041BDE8004100F07FB94FEAD22242EA4C
:101C300043524FEAD323A7FB02864FEAD02040EA63
:101C4000415007FB03661EEA0E0F4FEAD12105FB48
:101C5000026658BFA6EB0056B6EB00564FEA520E8E
:101C60004EEAC37E18EB0E0E56EB530EBDD518EBA5
:101C700002085E417F1C55F10005B6E74FF4801560
:101C80004FF000074FF000064FF00008ADE7F0BC42
:101C90004FF0000001F1C04101F00041BDE80081BA
:101CA00011EA0C1F0CEA131500D00CE013EA0C1F0C
:101CB00000F025804FF00000F0BC81EA030101F044
:101CC0000041BDE80081F0BCBDE8004181EA0301AC
:101CD00000F02AB9F0BCBDE8004170B500F0D6F8BC
:101CE000097EFC3E00F007B881EA03014FF00000D6
:101CF00001F00041704781EA030100F015B9F0BC22
:101D0000BDE800414FF0000021497047FFFDFBF99D
:101D1000F7F5F4F2F0EEEDEBE9E8E6E4E3E1E0DE1E
:101D2000DDDBDAD8D7D5D4D3D1D0CFCDCCCBCAC890
:101D3000C7C6C5C4C2C1C0BFBEBDBCBBBAB9B8B7B7
:101D4000B6B5B4B3B2B1B0AFAEADACABAAA9A8A8AA
:101D5000A7A6A5A4A3A3A2A1A09F9F9E9D9C9C9B78
:101D60009A99999897979695959493939291919023
:101D70008F8F8E8E8D8C8C8B8B8A898988888787B4
:101D80008685858484838382828181800000FF0729
:101D90000000F87F4FEA1153A3F58063D3F11E03CF
:101DA000A8BFD3F1200C08DB4FF0004242EAC12269
:101DB00052EA505232FA03F0704709420BD4102B0A
:101DC000C4BF0020704703F5787CBCF1FF3F05D00D
:101DD0004FF0FF3070474FF00000704770B500F0D3
:101DE00055F800BF4992248000207047F0E7B0FA10
:101DF00080F310FA03F10AD0C3F11D0303F58063E9
:101E00004FEA41504FEA035202EBD12170474FF0A5
:101E10000000704751EA030C17D41CF5801F58BF0F
:101E2000BCF5801F00F10680994218BF704708BFBB
:101E30009042704707D711F5801F58BF13F5801FD8
:101E400019D499427047894270471CF5801F08D504
:101E5000BCF5801FF7D58B4218BF704708BF824280
:101E600070474FF4001C1CEB410F38BF1CEB430FB5
:101E700001D28B42704770B500F008F892244900F7
:101E80004FF000514FF08053FFF720BE0EF1020ECD
:101E90002EF0030E5EF8046B364205D4012A43EBA4
:101EA000030515F5001F12D8012841EB010C1CF5A4
:101EB000001F0CD80ED14FEAD17C15F5001F0CEB9A
:101EC0004C0C0CF1020C08BF4CEBD37C04E04FF03F
:101ED000080C01E04FEAD37C0CEB4C0526FA05F622
:101EE00006F00706B6F1040C06D20EEB860CBDE830
:101EF00070404CF0010C6047DFE80CF0090B020267
:101F00004FF000414FF00000A1F5002170BD1946CF
:101F10001046012851EB010418BFD4F5001484BF0A
:101F2000002001F0004170BD0808A0F500114FEA43
:101F30003101704710B591EA030F48BF83F00043A9
:101F40003FF524AD841A71EB030C07D212198CF003
:101F5000004C43EB0C03001B61EB0C01DFF8A4E128
:101F60004FEA1154A4EB135C1EEA430F18BF9EEA1C
:101F7000445F00F0B08023EA6E03524221EA04512C
:101F8000C3EB6E0338BF5B1EDCF1200E25D322FAB3
:101F90000CFE10EB0E0043FA0CFE41EB0E01CCF1EF
:101FA000200E03FA0EFE10EB0E0051F10001CCF1F1
:101FB000200E29D412FA0EF201EB0451BDE81040B4
:101FC00058BF7047401C1CBFB2F1004F704700283B
:101FD0000CBF491C20F00100704712EB020E43EBCE
:101FE000030218BF4FF0010E4EEA4202ACF1200C82
:101FF000DCF11E0E54D943FA0CFE10EB0E0051F129
:10200000FF31CCF11E0ED5D50EF1010E12FA0EFEE7
:10201000404141EB010101EB445C5FEA5C5C10D99B
:1020200010EBDE7001EB045138BFBEF1004FBDE88C
:10203000104018BF704700280CBF491C20F0010059
:10204000704730D24FEAD42C11F5001124F400640B
:102050001BD0B1FA81F20B3AA41AA41ED2F12003CC
:10206000914030FA03F31943904001EBCC71002CFE
:1020700001EB0451BDE81040A8BF704701F1C04119
:102080004FF0000001F000417047B0FA80F310FA01
:1020900003F100D110BDE41A173C4805C90AE4E772
:1020A00001EB045110BD491001EB0451BDE8104093
:1020B0004FEA300002E04FF0000170474A0008BFCD
:1020C0000042F8D0B2F5001F28BF704701F0004170
:1020D0004FF0000070479EEA445F07D011EA5E0FA0
:1020E000BDE8104004BF002100207047BDE810404B
:1020F00070B5FFF7CBFE00BF40DFF63E83F0004136
:10210000104670470000E0FF43004FEAD30C4FEA4F
:102110003C0C43401FBF40070CF1605113F0FE4FD1
:1021200070471CF0006F03D100200CF00041704795
:102130000CF0004343EA507010B540EACC0000F0C8
:102140005CFA00BF000000924FEA0001FFF7ECBE0E
:102150004FF000414FF00000A1F500217047000052
:1021600090EA010F48BF81F0004100F1D482421A89
:102170003CBF801A89184FEAD0524FF07F4C1CEABE
:10218000410FA2EBD15318BF9CEA026F00F03B80D5
:102190004FF0004C4CEA00204CEA012121FA03FCEC
:1021A00010EB0C0C1ED202F1FF325FEA1C2040EB58
:1021B000C25038BF70471CF07F0F4FEA400C18BF69
:1021C000BCF17F4F38BF7047C3F12003994008BF6F
:1021D00020F00100BCF17F4F38BF7047A0F1C04034
:1021E00000F051BA4FEA3C00000A40EBC25028BF51
:1021F0001CF0FF0F4FEA400CE6D018BFBCF17F4F38
:1022000038BF7047EAE79CEA026F05D010EA5C0F1E
:1022100008BF00F00040704710B500F0EEF900BFB5
:1022200064FBBE3E401058BFC0F14040491058BF4B
:10223000C1F140418142EFF3008070474FF47F0CC1
:102240001CEAD0121EBF1CEAD11392EA0C0F93EACB
:102250000C0F00F0858090EA010F48BF42F48072B5
:1022600040F4000C41F400002CF07F4120F07F404E
:1022700000B58142A2EB03020FF2081CACEB504EFA
:10228000C0F100009EF800E04FEA4E0E00FB0EFC8D
:1022900038BF49004FEA2C1C02F5FA020CFB0EF382
:1022A0004FEACE1E4FEA112C4FEAC1210EEB635EBE
:1022B00042EB22420EFB0CFC4FEA1C5300FB0311C5
:1022C0004FEA112C4FEA01310EFB0CFC4FEADC4CBB
:1022D00000FB0C11C14228BF09184CEB03335DF819
:1022E00004EB10EB410143EBC250B2F57C0F38BF59
:1022F000704729D512F0F00F1CBF00F1C04000F06C
:1023000000407047008182838485868788898B8C12
:102310008D8E8F919293959697999A9C9D9FA0A24E
:10232000A3A5A7A8AAACAEB0B2B3B5B7B9BCBEC09E
:10233000C2C5C7C9CCCED1D4D7D9DCDFE2E6E9EC3F
:10234000F0F3F7FAFE0000004FEA400C0CF1807C3D
:10235000BCF17E4F28BF7047B0F1C04000F093B988
:1023600090EA010F0CEAD11348BF42F48072624533
:1023700038BF634507D213F47F0F16D080EA0100FF
:1023800000F00040704710B500F037F9097EFC3EC0
:1023900000F005B880EA010000F00040704780EAD4
:1023A000010000F0004000F06EB912F47F0F04BF8E
:1023B0000248704780EA010000F065B90000C07F64
:1023C00041000B0ED3F19E0208D950F400034FEAEE
:1023D000032323FA02F048BF4042704710B500F0D3
:1023E0000CF900BF49922480002070476FF0004232
:1023F00082EA200070470000C10DD1F19E0206DB89
:102400004FEA002343F0004323FA02F070470042F2
:1024100007D54FEA4001B1F1FE4F02D24FF0000064
:10242000704710B500F0E9F8499224800020704709
:102430006FEA20007047000010F0004148BF4042A2
:10244000B0FA80F310FA03F2C3F19D030BD051EA06
:10245000C35101EB1220530638BF704700F1010051
:1024600008BF20F001007047B0FA80F310FA03F2C1
:10247000C3F19D030AD0D90501EB1220530638BFE2
:10248000704700F1010008BF20F001007047000014
:1024900050EA010C00F113801CF5000F58BFBCF589
:1024A000000F01D48842704707D710F5000F58BFBE
:1024B00011F5000F15D488427047894270471CF50A
:1024C000000F04D5BCF5000FF7D5814270474FF0DF
:1024D000807C1CEB400F38BF1CEB410F01D28142C6
:1024E000704710B500F089F8922449004FF0005071
:1024F0004FF08051FFF796BE4FF47F0C1CEAD012CC
:102500001EBF1CEAD11392EA0C0F93EA0C0F00F0E5
:10251000478090EA010F48BF42F480724FF0004CB0
:102520004CEA00204CEA012102EB0302A0FB01135C
:10253000A2F50002002918BF43F001035B0028BF89
:102540004FEA330342EB22425FEA132C4CEBC250BA
:102550002EBFBCEB436FB2F57C0F70474FEA036CA4
:10256000BCF1004F08BF20F00100B2F57C0F38BF6E
:1025700070470BD582F0FF0212F5803FC8BF70474D
:1025800000F1C040D8BF00F00040704700F5000CDB
:102590005FEA4C0C48BF7047B0F1C04000F073B820
:1025A00090EA010F0CEAD11348BF42F480726245F1
:1025B00038BF634504D280EA010000F00040704754
:1025C00010B500F01AF800BF8900013E00F007B80E
:1025D00000F009B85FEA410C5FEA1C6C08D080EAA1
:1025E000010000F050B85FEA400C5FEA1C6CF6D1C5
:1025F0004FF00040A0F5800070470EF1020E2EF063
:10260000030E5EF8044B244204D44FEA4102B2F1B7
:102610007F4F11D84FEA4003B3F17F4F0CD80ED152
:102620004FEAD07CB2F17F4F0CEB4C0C0CF1020C5A
:1026300008BF4CEBD17C04E04FF0080C01E04FEAFE
:10264000D17C0CEB4C0324FA03F404F00704B4F13E
:10265000040C06D20EEB840CBDE810404CF0010CCB
:102660006047DFE80CF0070802024FF00040A0F5D9
:10267000800010BD0846420018BFD2F1807288BFAA
:1026800000F0004010BDFF2141EAD050C005704766
:1026900051EA000C00F113801CF5000F58BFBCF587
:1026A000000F01D48142704707D711F5000F58BFC2
:1026B00010F5000F15D481427047894270471CF510
:1026C000000F04D5BCF5000FF7D5884270474FF0D6
:1026D000807C1CEB410F38BF1CEB400F01D28842BD
:1026E000704780EA010081EA000180EA0100FFF7FB
:1026F000F8BE80F0004090EA010F7FF538AD81F020
:10270000004100F008B8000090EA010F48BF81F0D6
:1027100000413FF52CAD421A04D882F00042A0EBF4
:10272000020011444FEAD0524FF07F4C1CEA410F97
:10273000A2EBD15318BF9CEA026F4AD04FF0004C75
:102740004CEA00204CEA012121FA03FCB0EB0C0C0E
:102750000FD412F0FE0F36D05FEA4C001DD50012E8
:1027600040EBC25038BF70471CF03F0F18BF704796
:102770000BE0A2F101025FEA1C2040EBC25038BF1F
:1027800070471CF07F0F18BF7047C3F120039940BA
:1027900014BF401E20F00100704780084FEA12234A
:1027A00008BF7047B0FA80FCA2EB0C02CCF1280CF9
:1027B00060FA0CF093EA122F04BF00EBC25070478E
:1027C0004FEAC3707047130A5FEADC1008BF704716
:1027D000F6E79CEA026F04D010EA5C0F08BF002005
:1027E000704710B5FFF709FF40DFF63E81F000406B
:1027F0007047000014280008000000202C00000092
:10280000A4010008402800082C000020C408000093
:10281000C0010008000000000000000000000000EF
:102820000000000000A24A040000000000000000B8
:102830000000000000000000010000000000000097
:040000050800016985
:00000001FF
